:100000000C9434000C9451000C9451000C94510049
:100010000C9451000C9451000C9451000C9451001C
:100020000C9451000C9451000C9451000C9451000C
:100030000C9451000C9451000C9451000C945100FC
:100040000C9451000C9451000C9451000C945100EC
:100050000C9451000C9473000C9451000C945100BA
:100060000C9451000C94510011241FBECFEFD8E026
:10007000DEBFCDBF11E0A0E0B1E0E6E4F1E002C0F8
:1000800005900D92A030B107D9F711E0A0E0B1E0E2
:1000900001C01D92A230B107E1F70E9453000C94F9
:1000A000A1000C940000ECE7F0E080818064808384
:1000B000EAE7F0E080818F688083EEE7F0E08081FE
:1000C000816080837894AAE7B0E0E5E2F0E028EA76
:1000D00031E68C9180648C93808180958083C90106
:1000E0000197F1F7F6CF1F920F920FB60F921124DE
:1000F0002F933F934F938F939F938091780090E03D
:1001000090930101809300014091790020910001BA
:100110003091010188E090E002C0880F991F4A9554
:10012000E2F7822B932B90930101809300019F9122
:100130008F914F913F912F910F900FBE0F901F9075
:060140001895F894FFCFB2
:00000001FF
